{
  "_format": "hh-sol-artifact-1",
  "contractName": "HerbTrace",
  "sourceName": "contracts/HerbTrace.sol",
  "abi": [
    {
      "inputs": [],
      "stateMutability": "nonpayable",
      "type": "constructor"
    },
    {
      "anonymous": false,
      "inputs": [
        {
          "indexed": false,
          "internalType": "string",
          "name": "batchId",
          "type": "string"
        },
        {
          "indexed": false,
          "internalType": "uint256",
          "name": "timestamp",
          "type": "uint256"
        }
      ],
      "name": "BatchCompleted",
      "type": "event"
    },
    {
      "anonymous": false,
      "inputs": [
        {
          "indexed": false,
          "internalType": "string",
          "name": "batchId",
          "type": "string"
        },
        {
          "indexed": false,
          "internalType": "string",
          "name": "herbName",
          "type": "string"
        },
        {
          "indexed": false,
          "internalType": "address",
          "name": "collector",
          "type": "address"
        },
        {
          "indexed": false,
          "internalType": "uint256",
          "name": "timestamp",
          "type": "uint256"
        }
      ],
      "name": "BatchCreated",
      "type": "event"
    },
    {
      "anonymous": false,
      "inputs": [
        {
          "indexed": false,
          "internalType": "string",
          "name": "batchId",
          "type": "string"
        },
        {
          "indexed": false,
          "internalType": "enum HerbTrace.NodeType",
          "name": "nodeType",
          "type": "uint8"
        },
        {
          "indexed": false,
          "internalType": "address",
          "name": "actor",
          "type": "address"
        },
        {
          "indexed": false,
          "internalType": "uint256",
          "name": "timestamp",
          "type": "uint256"
        }
      ],
      "name": "EventLogged",
      "type": "event"
    },
    {
      "anonymous": false,
      "inputs": [
        {
          "indexed": false,
          "internalType": "address",
          "name": "wallet",
          "type": "address"
        },
        {
          "indexed": false,
          "internalType": "uint8",
          "name": "role",
          "type": "uint8"
        },
        {
          "indexed": false,
          "internalType": "string",
          "name": "name",
          "type": "string"
        }
      ],
      "name": "RoleAssigned",
      "type": "event"
    },
    {
      "inputs": [
        {
          "internalType": "address",
          "name": "",
          "type": "address"
        }
      ],
      "name": "actorNames",
      "outputs": [
        {
          "internalType": "string",
          "name": "",
          "type": "string"
        }
      ],
      "stateMutability": "view",
      "type": "function"
    },
    {
      "inputs": [
        {
          "internalType": "uint256",
          "name": "",
          "type": "uint256"
        }
      ],
      "name": "allBatchIds",
      "outputs": [
        {
          "internalType": "string",
          "name": "",
          "type": "string"
        }
      ],
      "stateMutability": "view",
      "type": "function"
    },
    {
      "inputs": [
        {
          "internalType": "address",
          "name": "wallet",
          "type": "address"
        },
        {
          "internalType": "uint8",
          "name": "role",
          "type": "uint8"
        },
        {
          "internalType": "string",
          "name": "name",
          "type": "string"
        }
      ],
      "name": "assignRole",
      "outputs": [],
      "stateMutability": "nonpayable",
      "type": "function"
    },
    {
      "inputs": [
        {
          "internalType": "string",
          "name": "",
          "type": "string"
        }
      ],
      "name": "batches",
      "outputs": [
        {
          "internalType": "string",
          "name": "batchId",
          "type": "string"
        },
        {
          "internalType": "string",
          "name": "herbName",
          "type": "string"
        },
        {
          "internalType": "string",
          "name": "herbLatin",
          "type": "string"
        },
        {
          "internalType": "uint256",
          "name": "quantityGrams",
          "type": "uint256"
        },
        {
          "internalType": "enum HerbTrace.BatchStatus",
          "name": "status",
          "type": "uint8"
        },
        {
          "internalType": "enum HerbTrace.NodeType",
          "name": "currentNode",
          "type": "uint8"
        },
        {
          "internalType": "address",
          "name": "creator",
          "type": "address"
        },
        {
          "internalType": "uint256",
          "name": "createdAt",
          "type": "uint256"
        },
        {
          "internalType": "uint256",
          "name": "eventCount",
          "type": "uint256"
        }
      ],
      "stateMutability": "view",
      "type": "function"
    },
    {
      "inputs": [
        {
          "internalType": "string",
          "name": "batchId",
          "type": "string"
        },
        {
          "internalType": "string",
          "name": "herbName",
          "type": "string"
        },
        {
          "internalType": "string",
          "name": "herbLatin",
          "type": "string"
        },
        {
          "internalType": "uint256",
          "name": "quantityGrams",
          "type": "uint256"
        },
        {
          "internalType": "int256",
          "name": "latE6",
          "type": "int256"
        },
        {
          "internalType": "int256",
          "name": "lngE6",
          "type": "int256"
        },
        {
          "internalType": "string",
          "name": "locationName",
          "type": "string"
        },
        {
          "internalType": "string",
          "name": "notes",
          "type": "string"
        },
        {
          "internalType": "string",
          "name": "photoHash",
          "type": "string"
        }
      ],
      "name": "createBatch",
      "outputs": [],
      "stateMutability": "nonpayable",
      "type": "function"
    },
    {
      "inputs": [],
      "name": "getAllBatchIds",
      "outputs": [
        {
          "internalType": "string[]",
          "name": "",
          "type": "string[]"
        }
      ],
      "stateMutability": "view",
      "type": "function"
    },
    {
      "inputs": [
        {
          "internalType": "string",
          "name": "batchId",
          "type": "string"
        }
      ],
      "name": "getBatch",
      "outputs": [
        {
          "internalType": "string",
          "name": "herbName",
          "type": "string"
        },
        {
          "internalType": "string",
          "name": "herbLatin",
          "type": "string"
        },
        {
          "internalType": "uint256",
          "name": "quantityGrams",
          "type": "uint256"
        },
        {
          "internalType": "uint8",
          "name": "status",
          "type": "uint8"
        },
        {
          "internalType": "uint8",
          "name": "currentNode",
          "type": "uint8"
        },
        {
          "internalType": "address",
          "name": "creator",
          "type": "address"
        },
        {
          "internalType": "uint256",
          "name": "createdAt",
          "type": "uint256"
        },
        {
          "internalType": "uint256",
          "name": "eventCount",
          "type": "uint256"
        }
      ],
      "stateMutability": "view",
      "type": "function"
    },
    {
      "inputs": [
        {
          "internalType": "string",
          "name": "batchId",
          "type": "string"
        }
      ],
      "name": "getEventCount",
      "outputs": [
        {
          "internalType": "uint256",
          "name": "",
          "type": "uint256"
        }
      ],
      "stateMutability": "view",
      "type": "function"
    },
    {
      "inputs": [],
      "name": "getStats",
      "outputs": [
        {
          "internalType": "uint256",
          "name": "_totalBatches",
          "type": "uint256"
        },
        {
          "internalType": "uint256",
          "name": "_totalEvents",
          "type": "uint256"
        }
      ],
      "stateMutability": "view",
      "type": "function"
    },
    {
      "inputs": [
        {
          "internalType": "string",
          "name": "batchId",
          "type": "string"
        },
        {
          "internalType": "uint256",
          "name": "index",
          "type": "uint256"
        }
      ],
      "name": "getTraceEvent",
      "outputs": [
        {
          "internalType": "uint8",
          "name": "nodeType",
          "type": "uint8"
        },
        {
          "internalType": "address",
          "name": "actor",
          "type": "address"
        },
        {
          "internalType": "string",
          "name": "actorName",
          "type": "string"
        },
        {
          "internalType": "int256",
          "name": "latitude",
          "type": "int256"
        },
        {
          "internalType": "int256",
          "name": "longitude",
          "type": "int256"
        },
        {
          "internalType": "string",
          "name": "locationName",
          "type": "string"
        },
        {
          "internalType": "string",
          "name": "notes",
          "type": "string"
        },
        {
          "internalType": "string",
          "name": "photoHash",
          "type": "string"
        },
        {
          "internalType": "uint256",
          "name": "timestamp",
          "type": "uint256"
        },
        {
          "internalType": "uint256",
          "name": "blockNumber",
          "type": "uint256"
        }
      ],
      "stateMutability": "view",
      "type": "function"
    },
    {
      "inputs": [
        {
          "internalType": "string",
          "name": "batchId",
          "type": "string"
        },
        {
          "internalType": "enum HerbTrace.NodeType",
          "name": "nodeType",
          "type": "uint8"
        },
        {
          "internalType": "int256",
          "name": "latE6",
          "type": "int256"
        },
        {
          "internalType": "int256",
          "name": "lngE6",
          "type": "int256"
        },
        {
          "internalType": "string",
          "name": "locationName",
          "type": "string"
        },
        {
          "internalType": "string",
          "name": "notes",
          "type": "string"
        },
        {
          "internalType": "string",
          "name": "photoHash",
          "type": "string"
        }
      ],
      "name": "logEvent",
      "outputs": [],
      "stateMutability": "nonpayable",
      "type": "function"
    },
    {
      "inputs": [],
      "name": "owner",
      "outputs": [
        {
          "internalType": "address",
          "name": "",
          "type": "address"
        }
      ],
      "stateMutability": "view",
      "type": "function"
    },
    {
      "inputs": [
        {
          "internalType": "address",
          "name": "",
          "type": "address"
        }
      ],
      "name": "roles",
      "outputs": [
        {
          "internalType": "uint8",
          "name": "",
          "type": "uint8"
        }
      ],
      "stateMutability": "view",
      "type": "function"
    },
    {
      "inputs": [
        {
          "internalType": "uint8",
          "name": "role",
          "type": "uint8"
        },
        {
          "internalType": "string",
          "name": "name",
          "type": "string"
        }
      ],
      "name": "selfRegister",
      "outputs": [],
      "stateMutability": "nonpayable",
      "type": "function"
    },
    {
      "inputs": [],
      "name": "totalBatches",
      "outputs": [
        {
          "internalType": "uint256",
          "name": "",
          "type": "uint256"
        }
      ],
      "stateMutability": "view",
      "type": "function"
    },
    {
      "inputs": [],
      "name": "totalEvents",
      "outputs": [
        {
          "internalType": "uint256",
          "name": "",
          "type": "uint256"
        }
      ],
      "stateMutability": "view",
      "type": "function"
    }
  ],
  "bytecode": "0x60806040523480156200001157600080fd5b50600080546001600160a01b031916339081178255808252600560208181526040808520805460ff191684179055805180820182529283526420b236b4b760d91b83830152928452600690529120906200006c90826200011a565b50620001e6565b634e487b7160e01b600052604160045260246000fd5b600181811c908216806200009e57607f821691505b602082108103620000bf57634e487b7160e01b600052602260045260246000fd5b50919050565b601f82111562000115576000816000526020600020601f850160051c81016020861015620000f05750805b601f850160051c820191505b818110156200011157828155600101620000fc565b5050505b505050565b81516001600160401b0381111562000136576200013662000073565b6200014e8162000147845462000089565b84620000c5565b602080601f8311600181146200018657600084156200016d5750858301515b600019600386901b1c1916600185901b17855562000111565b600085815260208120601f198616915b82811015620001b75788860151825594840194600190910190840162000196565b5085821015620001d65787850151600019600388901b60f8161c191681555b5050505050600190811b01905550565b61239880620001f66000396000f3fe608060405234801561001057600080fd5b50600436106101005760003560e01c80639bcf09b211610097578063bce0694711610066578063bce0694714610260578063c59d484714610275578063f5a9bca614610290578063f9ca4274146102a357600080fd5b80639bcf09b21461021e578063ad10faf414610231578063ba87068614610244578063bbe343c81461024d57600080fd5b80636dafee6d116100d35780636dafee6d146101815780637ef1446a146101965780638da5cb5b146101be57806399374642146101e957600080fd5b8063290b17ec1461010557806367c2ff701461012e57806369ff6abb146101415780636d573b1714610158575b600080fd5b6101186101133660046119f6565b6102ca565b6040516101259190611a5f565b60405180910390f35b61011861013c366004611a95565b610376565b61014a60015481565b604051908152602001610125565b61016b610166366004611b53565b61038f565b6040516101259a99989796959493929190611b98565b61019461018f366004611c3b565b61074c565b005b6101a96101a4366004611c99565b61085f565b60405161012599989796959493929190611d00565b6000546101d1906001600160a01b031681565b6040516001600160a01b039091168152602001610125565b61020c6101f7366004611a95565b60056020526000908152604090205460ff1681565b60405160ff9091168152602001610125565b61019461022c366004611da1565b610a5a565b61014a61023f366004611c99565b610f83565b61014a60025481565b61019461025b366004611e72565b610ffa565b61026861112e565b6040516101259190611ec0565b60015460025460408051928352602083019190915201610125565b61019461029e366004611f24565b611207565b6102b66102b1366004611c99565b6117dc565b604051610125989796959493929190612038565b600781815481106102da57600080fd5b9060005260206000200160009150905080546102f59061209d565b80601f01602080910402602001604051908101604052809291908181526020018280546103219061209d565b801561036e5780601f106103435761010080835404028352916020019161036e565b820191906000526020600020905b81548152906001019060200180831161035157829003601f168201915b505050505081565b600660205260009081526040902080546102f59061209d565b600080606060008060608060606000808b60006003826040516103b291906120d1565b90815260405190819003602001902080546103cc9061209d565b9050116103f45760405162461bcd60e51b81526004016103eb906120ed565b60405180910390fd5b60048d60405161040491906120d1565b908152604051908190036020019020548c106104585760405162461bcd60e51b8152602060048201526013602482015272496e646578206f7574206f6620626f756e647360681b60448201526064016103eb565b600060048e60405161046a91906120d1565b90815260200160405180910390208d8154811061048957610489612116565b60009182526020909120600a90910201805490915060ff1660038111156104b2576104b2611cd6565b8160000160019054906101000a90046001600160a01b03168260010183600201600001548460020160010154856002016002018660060187600701886008015489600901548780546105039061209d565b80601f016020809104026020016040519081016040528092919081815260200182805461052f9061209d565b801561057c5780601f106105515761010080835404028352916020019161057c565b820191906000526020600020905b81548152906001019060200180831161055f57829003601f168201915b5050505050975084805461058f9061209d565b80601f01602080910402602001604051908101604052809291908181526020018280546105bb9061209d565b80156106085780601f106105dd57610100808354040283529160200191610608565b820191906000526020600020905b8154815290600101906020018083116105eb57829003601f168201915b5050505050945083805461061b9061209d565b80601f01602080910402602001604051908101604052809291908181526020018280546106479061209d565b80156106945780601f1061066957610100808354040283529160200191610694565b820191906000526020600020905b81548152906001019060200180831161067757829003601f168201915b505050505093508280546106a79061209d565b80601f01602080910402602001604051908101604052809291908181526020018280546106d39061209d565b80156107205780601f106106f557610100808354040283529160200191610720565b820191906000526020600020905b81548152906001019060200180831161070357829003601f168201915b505050505092509b509b509b509b509b509b509b509b509b509b5050509295989b9194979a5092959850565b6000546001600160a01b031633146107925760405162461bcd60e51b81526020600482015260096024820152682737ba1037bbb732b960b91b60448201526064016103eb565b60018260ff16101580156107aa575060058260ff1611155b6107e55760405162461bcd60e51b815260206004820152600c60248201526b496e76616c696420726f6c6560a01b60448201526064016103eb565b6001600160a01b0383166000908152600560209081526040808320805460ff191660ff87161790556006909152902061081e828261217d565b507f6f9e8382effc1f2659a04b480fc00e03e9ea704a05c90d74db22a5fb12ee46af8383836040516108529392919061223d565b60405180910390a1505050565b80516020818301810180516003825292820191909301209152805481906108859061209d565b80601f01602080910402602001604051908101604052809291908181526020018280546108b19061209d565b80156108fe5780601f106108d3576101008083540402835291602001916108fe565b820191906000526020600020905b8154815290600101906020018083116108e157829003601f168201915b5050505050908060010180546109139061209d565b80601f016020809104026020016040519081016040528092919081815260200182805461093f9061209d565b801561098c5780601f106109615761010080835404028352916020019161098c565b820191906000526020600020905b81548152906001019060200180831161096f57829003601f168201915b5050505050908060020180546109a19061209d565b80601f01602080910402602001604051908101604052809291908181526020018280546109cd9061209d565b8015610a1a5780601f106109ef57610100808354040283529160200191610a1a565b820191906000526020600020905b8154815290600101906020018083116109fd57829003601f168201915b505050506003830154600484015460058501546006909501549394919360ff808316945061010083041692620100009092046001600160a01b0316919089565b866000600382604051610a6d91906120d1565b9081526040519081900360200190208054610a879061209d565b905011610aa65760405162461bcd60e51b81526004016103eb906120ed565b876000600382604051610ab991906120d1565b9081526040519081900360200190206004015460ff166002811115610ae057610ae0611cd6565b14610b205760405162461bcd60e51b815260206004820152601060248201526f4261746368206e6f742061637469766560801b60448201526064016103eb565b6000886003811115610b3457610b34611cd6565b610b3f906001612289565b3360009081526005602052604090205490915060ff80831691161015610ba75760405162461bcd60e51b815260206004820152601860248201527f57726f6e6720726f6c6520666f722074686973206e6f6465000000000000000060448201526064016103eb565b600060038b604051610bb991906120d1565b9081526020016040518091039020905060048b604051610bd991906120d1565b90815260200160405180910390206040518061012001604052808c6003811115610c0557610c05611cd6565b81523360208083018290526000918252600690526040908190208054919092019190610c309061209d565b80601f0160208091040260200160405190810160405280929190818152602001828054610c5c9061209d565b8015610ca95780601f10610c7e57610100808354040283529160200191610ca9565b820191906000526020600020905b815481529060010190602001808311610c8c57829003601f168201915b5050505050815260200160405180606001604052808d81526020018c81526020018b8152508152602001836001018054610ce29061209d565b80601f0160208091040260200160405190810160405280929190818152602001828054610d0e9061209d565b8015610d5b5780601f10610d3057610100808354040283529160200191610d5b565b820191906000526020600020905b815481529060010190602001808311610d3e57829003601f168201915b505050918352505060208082018a905260408201899052426060830152436080909201919091528254600181810185556000948552919093208251600a909402018054929390929091839160ff191690836003811115610dbd57610dbd611cd6565b0217905550602082015181546001600160a01b0390911661010002610100600160a81b031990911617815560408201516001820190610dfc908261217d565b5060608201518051600283019081556020820151600384015560408201516004840190610e29908261217d565b50505060808201516005820190610e40908261217d565b5060a08201516006820190610e55908261217d565b5060c08201516007820190610e6a908261217d565b5060e08201516008820155610100918201516009909101556004820180548c9261ff001990911690836003811115610ea457610ea4611cd6565b0217905550600681018054906000610ebb836122a8565b909155505060028054906000610ed0836122a8565b90915550600390508a6003811115610eea57610eea611cd6565b03610f395760048101805460ff191660011790556040517fdf359e734cc5db88499709660fa37d5e114b39d04a807ce9ef4069679ea66cb390610f30908d9042906122c1565b60405180910390a15b7f64c442c919cb93f739cf8ababa81b26ae9cc7b3785c57997219b597fd44c98e08b8b3342604051610f6e94939291906122e3565b60405180910390a15050505050505050505050565b6000816000600382604051610f9891906120d1565b9081526040519081900360200190208054610fb29061209d565b905011610fd15760405162461bcd60e51b81526004016103eb906120ed565b600483604051610fe191906120d1565b9081526040519081900360200190205491505b50919050565b60018260ff1610158015611012575060048260ff1611155b6110695760405162461bcd60e51b815260206004820152602260248201527f496e76616c696420726f6c6520666f722073656c662d7265676973747261746960448201526137b760f11b60648201526084016103eb565b3360009081526005602052604090205460ff16156110be5760405162461bcd60e51b8152602060048201526012602482015271105b1c9958591e481c9959da5cdd195c995960721b60448201526064016103eb565b336000908152600560209081526040808320805460ff191660ff8716179055600690915290206110ee828261217d565b507f6f9e8382effc1f2659a04b480fc00e03e9ea704a05c90d74db22a5fb12ee46af3383836040516111229392919061223d565b60405180910390a15050565b60606007805480602002602001604051908101604052809291908181526020016000905b828210156111fe5783829060005260206000200180546111719061209d565b80601f016020809104026020016040519081016040528092919081815260200182805461119d9061209d565b80156111ea5780601f106111bf576101008083540402835291602001916111ea565b820191906000526020600020905b8154815290600101906020018083116111cd57829003601f168201915b505050505081526020019060010190611152565b50505050905090565b3360009081526005602052604090205460019060ff1681148061123d57503360009081526005602081905260409091205460ff16145b61127d5760405162461bcd60e51b8152602060048201526011602482015270496e73756666696369656e7420726f6c6560781b60448201526064016103eb565b60008a51116112c25760405162461bcd60e51b815260206004820152601160248201527010985d18da081251081c995c5d5a5c9959607a1b60448201526064016103eb565b60038a6040516112d291906120d1565b90815260405190819003602001902080546112ec9061209d565b15905061133b5760405162461bcd60e51b815260206004820152601760248201527f426174636820494420616c72656164792065786973747300000000000000000060448201526064016103eb565b60008951116113815760405162461bcd60e51b815260206004820152601260248201527112195c98881b985b59481c995c5d5a5c995960721b60448201526064016103eb565b6040518061012001604052808b81526020018a8152602001898152602001888152602001600060028111156113b8576113b8611cd6565b815260200160008152602001336001600160a01b03168152602001428152602001600181525060038b6040516113ee91906120d1565b9081526040519081900360200190208151819061140b908261217d565b5060208201516001820190611420908261217d565b5060408201516002820190611435908261217d565b5060608201516003820155608082015160048201805460ff1916600183600281111561146357611463611cd6565b021790555060a082015160048201805461ff00191661010083600381111561148d5761148d611cd6565b021790555060c0820151600480830180546001600160a01b03909316620100000262010000600160b01b03199093169290921790915560e08301516005830155610100909201516006909101556040516114e8908c906120d1565b9081526040805160209281900383018120610120820183526000808352338584018190528152600690945292829020805491928301916115279061209d565b80601f01602080910402602001604051908101604052809291908181526020018280546115539061209d565b80156115a05780601f10611575576101008083540402835291602001916115a0565b820191906000526020600020905b81548152906001019060200180831161158357829003601f168201915b505050918352505060408051606080820183528b825260208281018c90528284018b9052808501929092529183018e9052908201879052608082018690524260a08301524360c0909201919091528254600181810185556000948552919093208251600a909402018054929390929091839160ff19169083600381111561162957611629611cd6565b0217905550602082015181546001600160a01b0390911661010002610100600160a81b031990911617815560408201516001820190611668908261217d565b5060608201518051600283019081556020820151600384015560408201516004840190611695908261217d565b505050608082015160058201906116ac908261217d565b5060a082015160068201906116c1908261217d565b5060c082015160078201906116d6908261217d565b5060e0820151600882015561010090910151600990910155600780546001810182556000919091527fa66cc928b5edb82af9bd49922954155ab7b0942694bea4ce44661d9a8736c6880161172a8b8261217d565b506001805490600061173b836122a8565b909155505060028054906000611750836122a8565b91905055507fd8045a119a7c2df6cea5c487e90f857abb1b84a5a356331229d0020ce9debc628a8a334260405161178a9493929190612320565b60405180910390a17f64c442c919cb93f739cf8ababa81b26ae9cc7b3785c57997219b597fd44c98e08a600033426040516117c894939291906122e3565b60405180910390a150505050505050505050565b6060806000806000806000808860006003826040516117fb91906120d1565b90815260405190819003602001902080546118159061209d565b9050116118345760405162461bcd60e51b81526004016103eb906120ed565b600060038b60405161184691906120d1565b9081526040519081900360200190206003810154600482015491925060018301916002808501929160ff169081111561188157611881611cd6565b6004850154610100900460ff16600381111561189f5761189f611cd6565b8560040160029054906101000a90046001600160a01b0316866005015487600601548780546118cd9061209d565b80601f01602080910402602001604051908101604052809291908181526020018280546118f99061209d565b80156119465780601f1061191b57610100808354040283529160200191611946565b820191906000526020600020905b81548152906001019060200180831161192957829003601f168201915b505050505097508680546119599061209d565b80601f01602080910402602001604051908101604052809291908181526020018280546119859061209d565b80156119d25780601f106119a7576101008083540402835291602001916119d2565b820191906000526020600020905b8154815290600101906020018083116119b557829003601f168201915b50505050509650995099509950995099509950995099505050919395975091939597565b600060208284031215611a0857600080fd5b5035919050565b60005b83811015611a2a578181015183820152602001611a12565b50506000910152565b60008151808452611a4b816020860160208601611a0f565b601f01601f19169290920160200192915050565b602081526000611a726020830184611a33565b9392505050565b80356001600160a01b0381168114611a9057600080fd5b919050565b600060208284031215611aa757600080fd5b611a7282611a79565b634e487b7160e01b600052604160045260246000fd5b600082601f830112611ad757600080fd5b813567ffffffffffffffff80821115611af257611af2611ab0565b604051601f8301601f19908116603f01168101908282118183101715611b1a57611b1a611ab0565b81604052838152866020858801011115611b3357600080fd5b836020870160208301376000602085830101528094505050505092915050565b60008060408385031215611b6657600080fd5b823567ffffffffffffffff811115611b7d57600080fd5b611b8985828601611ac6565b95602094909401359450505050565b60ff8b1681526001600160a01b038a16602082015261014060408201819052600090611bc68382018c611a33565b905089606084015288608084015282810360a0840152611be68189611a33565b905082810360c0840152611bfa8188611a33565b905082810360e0840152611c0e8187611a33565b6101008401959095525050610120015298975050505050505050565b803560ff81168114611a9057600080fd5b600080600060608486031215611c5057600080fd5b611c5984611a79565b9250611c6760208501611c2a565b9150604084013567ffffffffffffffff811115611c8357600080fd5b611c8f86828701611ac6565b9150509250925092565b600060208284031215611cab57600080fd5b813567ffffffffffffffff811115611cc257600080fd5b611cce84828501611ac6565b949350505050565b634e487b7160e01b600052602160045260246000fd5b60048110611cfc57611cfc611cd6565b9052565b6000610120808352611d148184018d611a33565b90508281036020840152611d28818c611a33565b90508281036040840152611d3c818b611a33565b91505087606083015260038710611d5557611d55611cd6565b866080830152611d6860a0830187611cec565b6001600160a01b039490941660c082015260e0810192909252610100909101529695505050505050565b803560048110611a9057600080fd5b600080600080600080600060e0888a031215611dbc57600080fd5b873567ffffffffffffffff80821115611dd457600080fd5b611de08b838c01611ac6565b9850611dee60208b01611d92565b975060408a0135965060608a0135955060808a0135915080821115611e1257600080fd5b611e1e8b838c01611ac6565b945060a08a0135915080821115611e3457600080fd5b611e408b838c01611ac6565b935060c08a0135915080821115611e5657600080fd5b50611e638a828b01611ac6565b91505092959891949750929550565b60008060408385031215611e8557600080fd5b611e8e83611c2a565b9150602083013567ffffffffffffffff811115611eaa57600080fd5b611eb685828601611ac6565b9150509250929050565b600060208083016020845280855180835260408601915060408160051b87010192506020870160005b82811015611f1757603f19888603018452611f05858351611a33565b94509285019290850190600101611ee9565b5092979650505050505050565b60008060008060008060008060006101208a8c031215611f4357600080fd5b893567ffffffffffffffff80821115611f5b57600080fd5b611f678d838e01611ac6565b9a5060208c0135915080821115611f7d57600080fd5b611f898d838e01611ac6565b995060408c0135915080821115611f9f57600080fd5b611fab8d838e01611ac6565b985060608c0135975060808c0135965060a08c0135955060c08c0135915080821115611fd657600080fd5b611fe28d838e01611ac6565b945060e08c0135915080821115611ff857600080fd5b6120048d838e01611ac6565b93506101008c013591508082111561201b57600080fd5b506120288c828d01611ac6565b9150509295985092959850929598565b600061010080835261204c8184018c611a33565b90508281036020840152612060818b611a33565b6040840199909952505060ff95861660608201529390941660808401526001600160a01b039190911660a083015260c082015260e0015292915050565b600181811c908216806120b157607f821691505b602082108103610ff457634e487b7160e01b600052602260045260246000fd5b600082516120e3818460208701611a0f565b9190910192915050565b6020808252600f908201526e10985d18da081b9bdd08199bdd5b99608a1b604082015260600190565b634e487b7160e01b600052603260045260246000fd5b601f821115612178576000816000526020600020601f850160051c810160208610156121555750805b601f850160051c820191505b8181101561217457828155600101612161565b5050505b505050565b815167ffffffffffffffff81111561219757612197611ab0565b6121ab816121a5845461209d565b8461212c565b602080601f8311600181146121e057600084156121c85750858301515b600019600386901b1c1916600185901b178555612174565b600085815260208120601f198616915b8281101561220f578886015182559484019460019091019084016121f0565b508582101561222d5787850151600019600388901b60f8161c191681555b5050505050600190811b01905550565b6001600160a01b038416815260ff8316602082015260606040820181905260009061226a90830184611a33565b95945050505050565b634e487b7160e01b600052601160045260246000fd5b60ff81811683821601908111156122a2576122a2612273565b92915050565b6000600182016122ba576122ba612273565b5060010190565b6040815260006122d46040830185611a33565b90508260208301529392505050565b6080815260006122f66080830187611a33565b90506123056020830186611cec565b6001600160a01b039390931660408201526060015292915050565b6080815260006123336080830187611a33565b82810360208401526123458187611a33565b6001600160a01b039590951660408401525050606001529291505056fea264697066735822122022c657e5c0032871781d7b5e42272c15d1ab12a59af544a737358552eac9c45964736f6c63430008180033",
  "linkReferences": {},
  "deployedLinkReferences": {}
}